{
  "_format": "hh-sol-artifact-1",
  "contractName": "VerifySignature",
  "sourceName": "contracts/VerifySignature.sol",
  "abi": [
    {
      "inputs": [
        {
          "internalType": "address",
          "name": "_from",
          "type": "address"
        },
        {
          "internalType": "address",
          "name": "_to",
          "type": "address"
        },
        {
          "internalType": "string",
          "name": "_date",
          "type": "string"
        },
        {
          "internalType": "string",
          "name": "_ip",
          "type": "string"
        }
      ],
      "name": "getMessageHash",
      "outputs": [
        {
          "internalType": "bytes32",
          "name": "",
          "type": "bytes32"
        }
      ],
      "stateMutability": "pure",
      "type": "function"
    },
    {
      "inputs": [
        {
          "internalType": "address",
          "name": "_from",
          "type": "address"
        },
        {
          "internalType": "address",
          "name": "_to",
          "type": "address"
        },
        {
          "internalType": "string",
          "name": "_date",
          "type": "string"
        },
        {
          "internalType": "string",
          "name": "_ip",
          "type": "string"
        },
        {
          "internalType": "bytes",
          "name": "sig",
          "type": "bytes"
        }
      ],
      "name": "verifySignature",
      "outputs": [
        {
          "internalType": "bool",
          "name": "",
          "type": "bool"
        }
      ],
      "stateMutability": "pure",
      "type": "function"
    }
  ],
  "bytecode": "0x608060405234801561001057600080fd5b506106ae806100206000396000f3fe608060405234801561001057600080fd5b50600436106100365760003560e01c80630afc57461461003b5780639e99de4d14610063575b600080fd5b61004e6100493660046104a0565b610084565b60405190151581526020015b60405180910390f35b61007661007136600461055e565b610114565b60405190815260200161005a565b6000806100e961009688888888610114565b6040517f19457468657265756d205369676e6564204d6573736167653a0a3332000000006020820152603c8101829052600090605c01604051602081830303815290604052805190602001209050919050565b90506001600160a01b0387166100ff828561014d565b6001600160a01b031614979650505050505050565b60008484848460405160200161012d949392919061061e565b604051602081830303815290604052805190602001209050949350505050565b600080600061015c8585610171565b91509150610169816101b7565b509392505050565b6000808251604114156101a85760208301516040840151606085015160001a61019c8782858561030d565b945094505050506101b0565b506000905060025b9250929050565b60008160048111156101cb576101cb610662565b14156101d45750565b60018160048111156101e8576101e8610662565b141561023b5760405162461bcd60e51b815260206004820152601860248201527f45434453413a20696e76616c6964207369676e6174757265000000000000000060448201526064015b60405180910390fd5b600281600481111561024f5761024f610662565b141561029d5760405162461bcd60e51b815260206004820152601f60248201527f45434453413a20696e76616c6964207369676e6174757265206c656e677468006044820152606401610232565b60038160048111156102b1576102b1610662565b141561030a5760405162461bcd60e51b815260206004820152602260248201527f45434453413a20696e76616c6964207369676e6174757265202773272076616c604482015261756560f01b6064820152608401610232565b50565b6000807f7fffffffffffffffffffffffffffffff5d576e7357a4501ddfe92f46681b20a083111561034457506000905060036103c8565b6040805160008082526020820180845289905260ff881692820192909252606081018690526080810185905260019060a0016020604051602081039080840390855afa158015610398573d6000803e3d6000fd5b5050604051601f1901519150506001600160a01b0381166103c1576000600192509250506103c8565b9150600090505b94509492505050565b80356001600160a01b03811681146103e857600080fd5b919050565b634e487b7160e01b600052604160045260246000fd5b600067ffffffffffffffff8084111561041e5761041e6103ed565b604051601f8501601f19908116603f01168101908282118183101715610446576104466103ed565b8160405280935085815286868601111561045f57600080fd5b858560208301376000602087830101525050509392505050565b600082601f83011261048a57600080fd5b61049983833560208501610403565b9392505050565b600080600080600060a086880312156104b857600080fd5b6104c1866103d1565b94506104cf602087016103d1565b9350604086013567ffffffffffffffff808211156104ec57600080fd5b6104f889838a01610479565b9450606088013591508082111561050e57600080fd5b61051a89838a01610479565b9350608088013591508082111561053057600080fd5b508601601f8101881361054257600080fd5b61055188823560208401610403565b9150509295509295909350565b6000806000806080858703121561057457600080fd5b61057d856103d1565b935061058b602086016103d1565b9250604085013567ffffffffffffffff808211156105a857600080fd5b6105b488838901610479565b935060608701359150808211156105ca57600080fd5b506105d787828801610479565b91505092959194509250565b6000815160005b8181101561060457602081850181015186830152016105ea565b81811115610613576000828601525b509290920192915050565b60006bffffffffffffffffffffffff19808760601b168352808660601b1660148401525061065861065260288401866105e3565b846105e3565b9695505050505050565b634e487b7160e01b600052602160045260246000fdfea2646970667358221220b13659d4aa22315f42bbd872c62d532116d907a9f633288489536274794df92564736f6c634300080c0033",
  "linkReferences": {},
  "deployedLinkReferences": {}
}